:100000000C941F010C9447010C9447010C94470178
:100010000C9447010C9447010C9447010C94470140
:100020000C9447010C9447010C945A080C94C9088D
:100030000C9447010C9447010C9447010C94470120
:100040000C9447010C9447010C9447010C94470110
:100050000C9447010C9447010C9447010C94FB0A43
:100060000C9447010C9447010C9447010C944701F0
:100070000C9447010C9447010C9447010C944701E0
:100080000C9447010C9447010C9447010C944701D0
:100090000C94450B0C9447010C9447010C944701B8
:1000A0000C9447010C9447010C9447010000000098
:1000B000000000002A2B28000000000000000000C3
:1000C0000000000000000000000000002C9EB4A012
:1000D000A1A2A434A6A7A5AE362D3738271E1F200F
:1000E000212223242526B333B62EB7B89F848586D4
:1000F0008788898A8B8C8D8E8F9091929394959618
:100100009798999A9B9C9D2F3130A3AD3504050695
:100110000708090A0B0C0D0E0F10111213141516F7
:100120001718191A1B1C1DAFB1B0B5000000000054
:10013000250028002B002E003100040404040403D1
:100140000405020202020403020202020606060677
:10015000060604040202020404040802011040809E
:10016000401020408040800802040180402010029E
:1001700001108010204040200000000200090F0004
:1001800000030401000C000000000000000000005B
:1001900000000000000000080B000202020000093D
:1001A00004000001020200000524001001052401E2
:1001B000010104240206052406000107058103103D
:1001C000004009040100020A000000070502024085
:1001D0000000070583024000000403090412010027
:1001E00002EF020140412336800001010203014178
:1001F000726475696E6F204C4C430041726475697E
:100200006E6F204C656F6E6172646F0005010906A8
:10021000A1018502050719E029E7150025017501EF
:1002200095088102950175088103950675081500EA
:1002300025730507190029738100C000640C11247F
:100240001FBECFEFDAE0DEBFCDBF22E0ACE7B1E00A
:1002500001C01D92A33EB207E1F711E0A0E0B1E0BA
:10026000E4ECF1E202C005900D92AC37B107D9F78A
:1002700011E0CFE1D1E004C02197FE010E94DA1025
:10028000CE31D107C9F70E94080D0C94E0100C94F0
:100290000000CF93DF93FC0181819091B402482F3D
:1002A000490F5527551F483051059CF5A281B38150
:1002B000109709F520EB32E03383228320812093CD
:1002C000B2028093B3028091B502820F80832091A5
:1002D000B602A22FB091B7028A2F821B8917E8F4C9
:1002E00081813D91C82FD0E0C45FDE4F38838F5F9E
:1002F0008183F2CFD90118962D913C911997211540
:100300003105C1F720EB32E019963C932E931897F4
:10031000D5CF80E0DF91CF91089581E0FBCFFC0144
:1003200080915302882311F13FB7F89482E08093C3
:10033000E9002091F200822F90E01816190614F4BB
:1003400081E090E0882339F0289844E640935202F7
:100350004091F1004083222339F02091F2002111D5
:1003600003C02BE62093E8003FBF08958FEF9FEF77
:1003700008950895CF93DF93AC01E0913102F0919D
:1003800032023097F1F09091300280912F0298174D
:10039000C0F090E0292F30E02617370754F4D90138
:1003A000A458BE4F240F351FE90128812C939F5F6D
:1003B000F1CF1092300260932F02CB01DF91CF91E9
:1003C0000994DF91CF910895409123025091240226
:1003D000209121023091220242175307B4F49091E8
:1003E000E8009570E1F39091E80092FD19C08093C8
:1003F000F100809123029091240201968F73992736
:10040000892B19F48EEF8093E8008091230290915C
:1004100024020196909324028093230281E00895A0
:1004200080E00895EF92FF920F931F93CF93DF9395
:10043000F82E192FE62E042F81E0860F880F0E94D8
:10044000E40183E00E94E401CF2DD12FEC0EFD2EBC
:10045000F11CCE15DF05B9F007FF13C0FE01849132
:100460000E94E401182F80E00E94E401812321967C
:100470008111EFCFDF91CF911F910F91FF90EF90FE
:1004800008958881EDCF81E0F5CFDF92EF92FF9262
:100490000F931F93CF93DF93D82E8A01EB017B013B
:1004A000E40EF51ECE15DF0559F0D7FE12C0FE0191
:1004B00084910E94E40121968111F4CF0FEF1FEF88
:1004C000C801DF91CF911F910F91FF90EF90DF90C6
:1004D00008958881EECF2FB7F89487708093E90054
:1004E0009091E800892F807295FF04C09091F200EE
:1004F00080E4891B2FBF0895615030F02091F100F6
:10050000FC0120830196F8CF289884E6809352025C
:1005100008958091190281110DC082E08093150227
:1005200084E080931602109218021092170281E064
:100530008093190285E192E008950F931F93CF9362
:10054000DF931F92CDB7DEB782E0898342E450E0AB
:1005500067E971E080E80E9445020E948902DC019F
:1005600012960D911C910115110589F0D801ED919C
:10057000FC910280F381E02DBE016F5F7F4FC801C7
:10058000099597FD04C0F80100851185ECCF89819C
:100590000F90DF91CF911F910F910895CF93DF932B
:1005A0001F92CDB7DEB76983DC01ED91FC9102802B
:1005B000F381E02D41E050E0BE016F5F7F4F099570
:1005C0000F90DF91CF910895682F84E592E00C940D
:1005D000CE0283E08093E9008091F200882319F035
:1005E0008AE38093E800089583E00E946B0290E024
:1005F0000895CF93DF931F92CDB7DEB7FC018485BA
:10060000958597FD08C02FEF3FEF358724870F9022
:10061000DF91CF910895CE0101960E948F0101973D
:1006200019F4898190E0F3CF8FEF9FEFF0CF0F9314
:100630001F93CF93DF931F92CDB7DEB78C01FC01E0
:100640008485958597FF0BC0CE0101960E948F018E
:10065000019771F4898190E0F80195878487F8010A
:10066000848595850F90DF91CF911F910F9108950B
:100670008FEF9FEFF1CFFC018485958597FD0BC02F
:100680009FB7F89482E08093E9008091F2009FBFC9
:1006900090E0019608959FB7F89482E08093E90076
:1006A0008091F2009FBF90E00895282F30E0F9017B
:1006B000E858FE4F9491F901E75AFE4F8491265C69
:1006C0003E4FF9012491222309F430C09923E9F027
:1006D00091509F30D0F4E92FF0E0EF58FC4F0C948C
:1006E000DA109F03A303800397039B03850385030D
:1006F0008503A603AC03B003B403BA038503BE03AA
:10070000909180009F7790938000E22FF0E0EE0FB1
:10071000FF1FE45DFE4FA591B4919FB7F894EC9153
:10072000611132C080958E238C939FBF0895909164
:1007300080009F7DE8CF90918000977FE4CF94B5B3
:100740009F7794BDE2CF94B59F7DFBCF90919000B1
:100750009F7790939000D9CF909190009F7DF9CF93
:1007600090919000977FF5CF9091C0009F779093E4
:10077000C000CBCF9091C0009F7DF9CF9091C20077
:10078000977F9093C200C1CF8E2BCECF3FB7F89406
:100790008091110290911202A0911302B091140263
:1007A00026B5A89B05C02F3F19F00196A11DB11DCC
:1007B0003FBFBA2FA92F982F8827BC01CD01620F08
:1007C000711D811D911D42E0660F771F881F991FC3
:1007D0004A95D1F70895CF92DF92EF92FF920E944F
:1007E000C6036B017C010E94C6036C197D098E094A
:1007F0009F09683E734081059105A8F3FF90EF9033
:10080000DF90CF9008957F928F929F92AF92BF9288
:10081000CF92DF92EF92FF920F931F93CF93DF93CC
:10082000C82E8B017A0180915302811110C08FEF85
:100830009FEFDF91CF911F910F91FF90EF90DF908D
:10084000CF90BF90AF909F908F907F9008958091B0
:10085000270280FF05C08091E00082608093E00065
:10086000CE2DDF2DD12C8AEFB82E8C2D8770982EAF
:100870008C2D8072882E8C2D8074782E9AE3A92E70
:10088000209719F4DD2009F44EC08C2D0E946B02D4
:10089000811106C0BA94BB2051F20E94EB03F0CF45
:1008A0008C171D0611F00CF08C2F9FB7F8949092C6
:1008B000E9002091E80025FD02C09FBFE1CF282F6D
:1008C00030E0C21BD30B882029F08150A0F0109299
:1008D000F100FBCFF801C7FC0AC0815050F04191F4
:1008E0004093F100FACF44914093F100319681504A
:1008F000D0F7020F131FDD2021F0A092E800D12CC9
:10090000DCCF8091E80085FD07C0A092E800DD24DF
:10091000D394209791F2F3CF209779F6772069F25C
:10092000A092E800CACF5D9884E680932602C701B2
:1009300080CFEF92FF921F93CF93DF931F92CDB79B
:10094000DEB77C018091C10281112AC011E01093B1
:10095000B4021093B5028AEB92E09093B7028093B1
:10096000B6021092B9021092B8028BE391E0909314
:10097000B1028093B0021092BC021092BB0210929E
:10098000BE021092BD021093BF021093C00281EC10
:100990008093BA020E9489020E9449011093C10209
:1009A00082E0898341E050E0BE016F5F7F4F80911C
:1009B000B3020E94030497FD08C08091B30248E08F
:1009C00050E0B70180640E9403040F90DF91CF9143
:1009D0001F91FF90EF900895CF93DF93EC018091EA
:1009E0000B01882331F083E00E94030418161906D6
:1009F00034F081E090E09B838A8380E090E0DF9197
:100A0000CF9108952091C201260F3327331F213241
:100A10003105ECF42091E601FC0190E080E0243007
:100A200069F082E00895A091C2012191AC014E5578
:100A30005E4FA40FB52FB11D2C930196861798F326
:100A40008091C201680F6093C20180E0089581E047
:100A500008951092E60181E08093E8011092E70189
:100A600061E082E00E94550361E083E00E9455034B
:100A7000E9EBF0E080818E7F808380818D7F8083B1
:100A800088E48093B80085E48093BC0008950895BD
:100A9000E091300280912F02E81730F4F0E0E45842
:100AA000FE4F808190E008958FEF9FEF0895909121
:100AB000300280912F022FEF3FEF981748F4E92F73
:100AC000F0E0E458FE4F208130E09F5F90933002C9
:100AD000C901089580912F0290913002891B990BD2
:100AE0000895CF93DF93CB01EA01642F0E940205A2
:100AF000CE01DF91CF910895CF93DF931F92CDB7B1
:100B0000DEB7698361E0CE0101960E94020581E0B3
:100B100090E00F90DF91CF910895DC01FB011296D8
:100B20002C911297848195812817190641F491819F
:100B30008081813A31F49D7F81E0913009F080E03D
:100B400008958132E1F79B3029F482811F968C93BE
:100B500081E008959A3099F7828150968C93F8CF6E
:100B6000DC01FB0188E4808389E4818384E482835F
:100B70001D969C911D979F709F5B93831D968D91F1
:100B80009C9124E0969587952A95E1F78F708F5B6D
:100B9000848385E00895EF92FF920F931F93CF9384
:100BA000DF93FB012081213871F52381223259F531
:100BB000DC0112964C91248135814217130619F5F8
:100BC000EC010B851C85F12CE12C0115110589F038
:100BD000F801448155816281738180E80E94450259
:100BE0008F3F980749F0E80EF91ED8010D911C912E
:100BF000ECCF81E08F87C701DF91CF911F910F91DB
:100C0000FF90EF90089590E080E0F6CFCF93DF93D0
:100C1000CDB7DEB769970FB6F894DEBF0FBECDBF74
:100C2000FC01DB018C918F5F8C939E012D5F3F4F08
:100C30008DE0D9011D928A95E9F729E0298384E0A6
:100C40008A8391E09D8383E08E832A8721E22B872C
:100C50009C879D879F8722E2288B27E02B8B25E0AE
:100C60002C8B8E8B20E430E0388F2F8B998F8281F4
:100C70008B8395858685998B8A8B838180688D8B04
:100C800049E150E0BE016F5F7F4F80E00E94450266
:100C900069960FB6F894DEBF0FBECDBFDF91CF913E
:100CA0000895CF92DF92EF92FF920F931F93CF930D
:100CB000DF936C01EB017B01E40EF51E10E000E018
:100CC000CE15DF0581F069916D30D1F3D601ED913C
:100CD000FC910190F081E02DC6010995892B19F056
:100CE0000F5F1F4FEDCFC801DF91CF911F910F9183
:100CF000FF90EF90DF90CF900895DC016838A0F06E
:100D00006858FD0186E0662321F09681961301C0A4
:100D10001682815031968111F6CFCD0104960E9442
:100D2000990481E090E00895E62FF0E067FF12C09B
:100D3000E058F10981E090E001C0880FEA95EAF7F8
:100D4000809514969C911497892314968C931497EC
:100D500060E0D7CFE455FF4F6491662359F067FFF9
:100D6000D0CF14968C9114978D7F14968C931497F2
:100D70006F77C7CF90E080E00895DC01683888F194
:100D8000685816968C911697861721F117968C91B4
:100D900017978617F9F018968C9118978617D1F047
:100DA00019968C9119978617A9F01A968C911A9713
:100DB000861781F01B968C911B97861759F0FD01C1
:100DC000369690E080E02191211139C08A0F9B1F57
:100DD000FC016683CD0104960E94990481E090E0B5
:100DE0000895E62FF0E067FF11C0E058F10921E017
:100DF00030E001C0220FEA95EAF714968C9114971F
:100E0000822B14968C93149760E0BBCFE455FF4F70
:100E10006491611109C081E090E013969C938E93D8
:100E2000129790E080E0089567FFABCF14968C9105
:100E30001497826014968C9314976F77A2CF0196C3
:100E40008630910509F0BFCFE6CFEF92FF921F9356
:100E5000CF93DF93EC01162F0E94BD067C01612F1A
:100E6000CE010E947D06C7019927DF91CF911F9186
:100E7000FF90EF900895089590E080E008950F931B
:100E80001F93CF93DF938C018091510281114EC04B
:100E9000C1E4D2E0CE01815492408017910708F05E
:100EA0003DC02FB7F89480910D0290910E02A09151
:100EB0000F02B09110022FBF8093AC029093AD024D
:100EC000A093AE02B093AF0284EA92E00E9457056D
:100ED00097FF3AC02FB7F89480910D0290910E02BF
:100EE000A0910F02B09110022FBF4091AC0250911F
:100EF000AD026091AE027091AF02841B950BA60B00
:100F0000B70B4091A8025091A9026091AA0270917A
:100F1000AB0284179507A607B707B0F281E080936C
:100F20005102DF91CF911F910F91089580912F026F
:100F300090913002891B990B1816190694F784EAD0
:100F400092E00E945705F2CF8993A4CFFC01019053
:100F50000020E9F73197AF01481B590BBC0184E52C
:100F600092E00C94EC04CF93DF930E94A607EC016F
:100F70008FE491E00E94A6078C0F9D1FDF91CF9117
:100F80000895CF92DF92EF92FF920F931F93CF932A
:100F9000DF93CDB7DEB7A1970FB6F894DEBF0FBED3
:100FA000CDBF282F30E050E040E019A28E010F5D48
:100FB0001F4F8AE0C82ED12CE12CF12CCA01B901B7
:100FC000A70196010E94B810605DF80162938F013D
:100FD000211531054105510589F790E080E03097F2
:100FE00019F0CF010E94A607A1960FB6F894DEBFB4
:100FF0000FBECDBFDF91CF911F910F91FF90EF906A
:10100000DF90CF900895CF93DF9385ED8093BC0060
:1010100080919E0190919F01A091A001B091A101AA
:101020000796A11DB11D23E0B695A79597958795C5
:101030002A95D1F72091BC0024FD03C01092E6014F
:1010400036C040919E0150919F016091A001709126
:10105000A101452B462B472B69F30097A105B1054C
:1010600041F025E32A95F1F700000197A109B109A4
:10107000E1CF80919D0191E090939C018823B9F08C
:10108000C091B800D091BA008091BC008A7B809357
:10109000BC0060E082E00E94550360E083E00E94B3
:1010A00055030E942905D093BA00C093B800DF9180
:1010B000CF9108951F920F920FB60F9211248F9324
:1010C0009F938091E1009091E100937F9093E100E4
:1010D00083FF0FC01092E90091E09093EB00109213
:1010E000EC0092E39093ED001092530298E09093FD
:1010F000F00082FF22C093E09093E9009091F2000B
:10110000992319F09AE39093E8009091260299238D
:1011100041F090912602915090932602911101C0C6
:101120005D9A90915202992341F090915202915010
:1011300090935202911101C0289A84FF18C08091A7
:10114000E2008E7E81608093E2008091E1008F7EDC
:101150008093E100809127028E7E80618093270238
:101160009F918F910F900FBE0F901F90189580FF49
:10117000F7CF8091E2008E7E80618093E2008091C3
:10118000E1008E7E8093E100809127028E7E816057
:10119000E5CF1F920F920FB60F921124CF92DF92DC
:1011A000EF92FF920F931F932F933F934F935F9371
:1011B0006F937F938F939F93AF93BF93EF93FF931F
:1011C000CF93DF93CDB7DEB76C97DEBFCDBF109264
:1011D000E9008091E80083FF25C068E0CE014596D4
:1011E0000E947C0282EF8093E8008D8987FF39C0DE
:1011F0009091E80090FFFCCF982F907609F034C1D1
:101200009E894F89588D2F89F88C911131C0803873
:1012100061F5809128028093F1001092F1008EEF29
:101220008093E8006C960FB6F894DEBF0FBECDBF7A
:10123000DF91CF91FF91EF91BF91AF919F918F91EE
:101240007F916F915F914F913F912F911F910F91DE
:10125000FF90EF90DF90CF900F900FBE0F901F90F8
:1012600018959EEF9093E800C7CF1092F100D5CF6C
:10127000913059F48111D3CF4130510581F68091DD
:1012800028028D7F80932802CACF933049F48111C0
:10129000C6CF4130510519F6809128028260F2CF05
:1012A000953041F48091E80080FFFCCF20682093C6
:1012B000E300B5CF963009F0A9C00B8D1C8D22E05C
:1012C0001092E9001092240210922302F2122EC012
:1012D00010922202109221020E949D021F8299E028
:1012E0009983FA8291E09E8390EA98879AEF998792
:1012F0002091230230912402275F3F4F3C832B83B0
:101300008D831092E9001092240210922302109310
:1013100022020093210249E050E0BE016F5F7F4F3F
:1013200080E00E9445020E949D0279CF1093220224
:10133000009321020E948902DC0112960D911C91FA
:101340000115110509F451C1D801ED91FC910480FA
:10135000F581E02DBE016B5E7F4FC80109950097B6
:1013600009F03EC1F80100851185EACFF3E0FF12D4
:101370000EC08F89882309F440C0823061F440E8B0
:1013800060E18BEF91E00E941202811148CF81E26F
:101390008093EB0047CF813029F440E86BE08FEE7B
:1013A00091E0F1CF833099F70E948902DC01129617
:1013B000ED90FC908E010F5F1F4F6801E114F10466
:1013C00079F0D701ED91FC910680F781E02DB8010D
:1013D000C7010995080F111DF701E084F184EECFD4
:1013E000D8011C92F60101900020E9F73197BF0166
:1013F0006C197D0940E0C601C6CF69ED71E0FB01C3
:10140000449150E080E80E94450209CF973009F4EA
:10141000BECF983021F481E08093F10000CF993065
:1014200009F0FDCE837009F0B2CFEDE0F1E081E08C
:1014300031E096E32191222371F08093E90030930B
:10144000EB00DF0111972C912093EC009093ED00BD
:101450008F5F873079F78EE78093EA001092EA0079
:101460008F8980935302DBCE8B8D9C8D1092E90087
:101470001092240210922302909322028093210260
:10148000898D811192C08E899D89913A49F481326A
:1014900009F07DCF47E050E064E071E080E0B3CF39
:1014A000913209F074CF833269F48F89988DB0E05E
:1014B000A0E08093000190930101A0930201B093FA
:1014C0000301ADCE803269F48091E80082FFFCCF49
:1014D00067E084E091E00E947C028BEF8093E8005B
:1014E0009ECE823209F09BCE8F8980930B01EEEF66
:1014F000FFE7859194918B3F9C4D51F1E0E0F8E03E
:101500008091040190910501A0910601B09107011D
:10151000803B9440A105B105F1F480910B0180FD61
:101520001AC0EE3F8AE0F80789F587E797E79183CD
:101530008083809160008093250288E19BE00FB654
:10154000F894A895809360000FBE9093600067CEDA
:10155000EEEFFAE0D5CF808191818737974709F088
:101560005ECEA89580916000886180936000809134
:10157000250280936000EE3F2AE0F20789F0809117
:10158000FE0A9091FF0A9183808349CE80819181E8
:101590008737980751F29093FF0A8093FE0AC5CFD0
:1015A0001092FF0A1092FE0A3ACE0E948902DC01D4
:1015B00012960D911C910115110509F4E8CED80180
:1015C000ED91FC910190F081E02DBE016B5E7F4FAB
:1015D000C8010995811123CEF80100851185EBCF53
:1015E000181619060CF41BCED2CEF1E0FF12BECEB7
:1015F0006DED71E004CF1F920F920FB60F92112480
:101600002F933F938F939F93AF93BF9380910D023E
:1016100090910E02A0910F02B091100230910C0235
:1016200023E0230F2D3758F50196A11DB11D2093FE
:101630000C0280930D0290930E02A0930F02B093C0
:1016400010028091110290911202A0911302B091A8
:1016500014020196A11DB11D8093110290931202F4
:10166000A0931302B0931402BF91AF919F918F91F9
:101670003F912F910F900FBE0F901F90189526E865
:10168000230F0296A11DB11DD2CF1F920F920FB64C
:101690000F9211242F933F934F935F936F937F93F8
:1016A0008F939F93AF93BF93EF93FF938091B90074
:1016B000887F803609F44AC0F0F5883209F4A7C063
:1016C00018F5803109F49BC0B8F4882309F4F9C0F7
:1016D000883009F494C0FF91EF91BF91AF919F9131
:1016E0008F917F916F915F914F913F912F910F90CB
:1016F0000FBE0F901F901895883109F488C0803272
:1017000051F78093E50114C0803409F49DC040F482
:101710008033B9F38833F9F68093E50185ECB0C0E6
:10172000803509F485C0883509F496C0883499F667
:101730000E940308D0CF883909F48CC038F5883767
:1017400029F050F4883611F0803729F683E0809331
:10175000E6011092E40157C0883809F47BC0803953
:1017600019F0803809F0B7CF8091E401803208F099
:1017700071C0E091E40181E08E0F8093E4018091DB
:10178000BB00F0E0EC53FE4F80833DC0803B39F05E
:10179000E0F4803A09F479C0883A09F09CCF84E0FB
:1017A0008093E6011092C3011092C201E0912B02D6
:1017B000F0912C0209958091C20181110FC081E046
:1017C0008093C2011092A20109C0803C09F4A6CF07
:1017D000883C09F4A3CF883B09F07DCFE091C30199
:1017E00081E08E0F8093C301F0E0EE55FE4F8081C3
:1017F0008093BB009091C3018091C20129C0809168
:101800000B028093BB0085EC8093BC0064CF909169
:101810000A0280910902981758F5E0910A0281E0C6
:101820008E0F80930A02F0E0E751FE4F8081E9CFEE
:10183000E0910A0281E08E0F80930A028091BB0042
:10184000F0E0E751FE4F808390910A0280910902F7
:101850009817C8F285E8D8CFE0910A0281E08E0F90
:1018600080930A028091BB00F0E0E751FE4F808335
:101870008091E80181115CCF81E08093E70184EAE7
:101880008093BC001092E60126CF85EC8093BC00CB
:101890001092E6018091E401803230F4E091E4019D
:1018A000F0E0EC53FE4F10826091E40170E0E091B3
:1018B0002902F0912A0284EC91E009951092E4014A
:1018C0000ACF1092E50134CFCF93109257021092B5
:1018D000560288EE93E0A0E0B0E080935802909327
:1018E0005902A0935A02B0935B0227E131E0309392
:1018F0005502209354022FEF3FEF30936102209363
:1019000060021092A7021092A6028093A802909300
:10191000A902A093AA02B093AB0289E291E090934E
:10192000A5028093A4021092DA021092D90287E4F1
:1019300091E09093D8028093D7028091CF028111D9
:1019400013C01092CA021092C9028CE092E09093E8
:10195000CC028093CB028FE290E09093CE028093F2
:10196000CD0281E08093CF028091C10281112AC013
:10197000C1E0C093B402C093B5028AEB92E09093A9
:10198000B7028093B6021092B9021092B8028BE3AC
:1019900091E09093B1028093B0021092BC02109239
:1019A000BB021092BE021092BD02C093BF02C09350
:1019B000C00281EC8093BA020E9489020E94490110
:1019C000C093C102E091BB02F091BC023097B9F420
:1019D00089EC92E09093BC028093BB028091BD029F
:1019E0009091BE022091CD023091CE02820F931FC2
:1019F0009093BE028093BD02CF910895FC01808137
:101A000091810097D9F789EC92E091838083E6CFAA
:101A1000789484B5826084BD84B5816084BD85B5C9
:101A2000826085BD85B5816085BD80916E008160D5
:101A300080936E001092810080918100826080937B
:101A4000810080918100816080938100809180007D
:101A500081608093800080919100826080939100EA
:101A600080919100816080939100809190008160CD
:101A7000809390008091C10084608093C100809128
:101A8000C10082608093C1008091C1008160809319
:101A9000C1008091C30081608093C3008091C00029
:101AA00082608093C0008091C20081608093C200F8
:101AB00080917A00846080937A0080917A008260BD
:101AC00080937A0080917A00816080937A0080917F
:101AD0007A00806880937A00109253021092280254
:101AE000109227028091D70081608093D70080EA0E
:101AF0008093D80089B5806189BD89B5826089BD30
:101B000009B400FEFDCF0E94EB038091D8008F7CCA
:101B100080618093D8008091E000807F8093E00016
:101B20008091E1008E7E8093E1008DE08093E20061
:101B3000559A209A8FEF9FEF9093610280936002F5
:101B400082E591E00E94B3078CE591E00E94B30723
:101B50001092300210922F0210922E0210922D023B
:101B60000E94290589EB91E090932C0280932B022F
:101B70008AEB91E090932A028093290282E180937C
:101B8000BA008FE397E090933202809331028CE6A3
:101B900091E00E94B307C0E0D0E080915102882319
:101BA00009F4E0C28091450290913802891771F1E1
:101BB0008823A1F060E887ED92E00E94BD0660EF07
:101BC00087ED92E00E94BD0660E887ED92E00E94FA
:101BD0007D0660EF87ED92E00E947D0680914502D0
:101BE000811114C060E887ED92E00E94BD0661EFAC
:101BF00087ED92E00E94BD0660E887ED92E00E94CA
:101C00007D0661EF87ED92E00E947D06809146029D
:101C100090913702891771F18823A1F060E887ED70
:101C200092E00E94BD0662EF87ED92E00E94BD0641
:101C300060E887ED92E00E947D0662EF87ED92E01A
:101C40000E947D0680914602811114C060E887EDF4
:101C500092E00E94BD0663EF87ED92E00E94BD0610
:101C600060E887ED92E00E947D0663EF87ED92E0E9
:101C70000E947D068091470290913602891771F18A
:101C80008823A1F060E887ED92E00E94BD0664EF32
:101C900087ED92E00E94BD0660E887ED92E00E9429
:101CA0007D0664EF87ED92E00E947D0680914702F9
:101CB000811114C060E887ED92E00E94BD0665EFD7
:101CC00087ED92E00E94BD0660E887ED92E00E94F9
:101CD0007D0665EF87ED92E00E947D0680914802C7
:101CE00090913502891771F18823A1F060E887EDA2
:101CF00092E00E94BD0666EF87ED92E00E94BD066D
:101D000060E887ED92E00E947D0666EF87ED92E045
:101D10000E947D0680914802811114C060E887ED21
:101D200092E00E94BD0667EF87ED92E00E94BD063B
:101D300060E887ED92E00E947D0667EF87ED92E014
:101D40000E947D068091490290913402891771F1B9
:101D50008823A1F060E887ED92E00E94BD0668EF5D
:101D600087ED92E00E94BD0660E887ED92E00E9458
:101D70007D0668EF87ED92E00E947D068091490222
:101D8000811114C060E887ED92E00E94BD0669EF02
:101D900087ED92E00E94BD0660E887ED92E00E9428
:101DA0007D0669EF87ED92E00E947D0680914A02F0
:101DB00090913302891771F18823A1F060E887EDD3
:101DC00092E00E94BD066AEF87ED92E00E94BD0698
:101DD00060E887ED92E00E947D066AEF87ED92E071
:101DE0000E947D0680914A02811114C060E887ED4F
:101DF00092E00E94BD066BEF87ED92E00E94BD0667
:101E000060E887ED92E00E947D066BEF87ED92E03F
:101E10000E947D0680914B028823A1F062E887ED45
:101E200092E00E94BD0660EF87ED92E00E94BD0641
:101E300062E887ED92E00E947D0660EF87ED92E018
:101E40000E947D0680914B02811114C062E887EDEB
:101E500092E00E94BD0661EF87ED92E00E94BD0610
:101E600062E887ED92E00E947D0661EF87ED92E0E7
:101E70000E947D0680914C028823A1F062E887EDE4
:101E800092E00E94BD0662EF87ED92E00E94BD06DF
:101E900062E887ED92E00E947D0662EF87ED92E0B6
:101EA0000E947D0680914C02811114C062E887ED8A
:101EB00092E00E94BD0663EF87ED92E00E94BD06AE
:101EC00062E887ED92E00E947D0663EF87ED92E085
:101ED0000E947D0680914D028823A1F062E887ED83
:101EE00092E00E94BD0664EF87ED92E00E94BD067D
:101EF00062E887ED92E00E947D0664EF87ED92E054
:101F00000E947D0680914D02811114C062E887ED28
:101F100092E00E94BD0665EF87ED92E00E94BD064B
:101F200062E887ED92E00E947D0665EF87ED92E022
:101F30000E947D0680914E028823A1F062E887ED21
:101F400092E00E94BD0666EF87ED92E00E94BD061A
:101F500062E887ED92E00E947D0666EF87ED92E0F1
:101F60000E947D0680914E02811114C062E887EDC7
:101F700092E00E94BD0667EF87ED92E00E94BD06E9
:101F800062E887ED92E00E947D0667EF87ED92E0C0
:101F90000E947D0680914F028823A1F062E887EDC0
:101FA00092E00E94BD0668EF87ED92E00E94BD06B8
:101FB00062E887ED92E00E947D0668EF87ED92E08F
:101FC0000E947D0680914F02811114C062E887ED66
:101FD00092E00E94BD0669EF87ED92E00E94BD0687
:101FE00062E887ED92E00E947D0669EF87ED92E05E
:101FF0000E947D06809150028823A1F062E887ED5F
:1020000092E00E94BD066AEF87ED92E00E94BD0655
:1020100062E887ED92E00E947D066AEF87ED92E02C
:102020000E947D0680915002811114C062E887ED04
:1020300092E00E94BD066BEF87ED92E00E94BD0624
:1020400062E887ED92E00E947D066BEF87ED92E0FB
:102050000E947D062091410280913F0290914002B2
:1020600028171906D9F42091420280913D029091DF
:102070003E022817190691F42091430280913B02F9
:1020800090913C022817190649F42091440280914E
:10209000390290913A022817190671F18CE00E94DA
:1020A000E402809142028A3028F480E20E94E40235
:1020B000809142020E94C107809141028A3028F437
:1020C00080E20E94E402809141020E94C10780E206
:1020D0000E94E402809144020E94C1078AE30E94A8
:1020E000E402809143028A3028F480E30E94E402F3
:1020F000809143020E94C1078091410290E0909339
:10210000400280933F028091420290E090933E0211
:1021100080933D028091430290E090933C02809333
:102120003B028091440290E090933A0280933902FE
:102130008091450280933802809146028093370255
:102140008091470280933602809148028093350245
:10215000809149028093340280914A028093330235
:1021600010925102209709F418CD0E94000015CD5D
:10217000A1E21A2EAA1BBB1BFD010DC0AA1FBB1F8B
:10218000EE1FFF1FA217B307E407F50720F0A21BFD
:10219000B30BE40BF50B661F771F881F991F1A946A
:1021A00069F760957095809590959B01AC01BD0194
:1021B000CF010895EE0FFF1F0590F491E02D0994D3
:0421C000F894FFCFC1
:1021C400FFFFFFFF00E100000000000000C180816C
:1021D40000000000000000CE02EC04F402E9023B1F
:1021E40003F9021703000000007C0571053C074752
:1021F400056A0557054805000000008D050606CB55
:1022040005B00500000000250751063C073B070DFB
:102214000A005374617274696E67210053657474A3
:10222400696E67207570206932632E00536574757A
:0C2234007020436F6D706C6574652100B4
:00000001FF
